:100000000C942A000C9447000C9447000C94470071
:100010000C9447000C9447000C9447000C94470044
:100020000C9447000C9447000C9447000C94470034
:100030000C9447000C9447000C9447000C94470024
:100040000C9447000C9447000C9447000C94470014
:100050000C94470011241FBECFE5D8E0DEBFCDBF12
:1000600010E0A0E6B0E0ECE4FAE002C005900D92EA
:10007000A036B107D9F720E0A0E6B0E001C01D929C
:10008000AB36B207E1F70E945A030C9424050C9496
:10009000000086B1806886B987B1806487B987B16E
:1000A0008F7787B986B1816086B986B1826086B95B
:1000B00086B1846086B986B1877F86B986B1806152
:1000C00086B9089597B18F71982B97B986B18064DE
:1000D00086B9349BFECF86B1806186B984B195B173
:1000E000089580916A00811104C081E080936A00C4
:1000F0004DC060916600709167008091680090919A
:10010000690020E030E040E85FE30E94890381114C
:1001100016C06091620070916300809164009091BC
:10012000650020E030E040EA52E40E94B2048823F7
:1001300034F00E94F30081E00E940B0305C00E948E
:10014000100181E00E94330380E00E946200BC0144
:1001500080E090E00E94000420E030E44CE955E4A7
:100160000E94B70420E030E040E85AE30E94B70460
:1001700020E030E040E251E40E948E036093620090
:1001800070936300809364009093650081E00E9407
:100190006103682F70E080E090E00E9400046093AB
:1001A000660070936700809368009093690020E078
:1001B00030E040E85FE30E948903811104C082E0DF
:1001C0000E940B03089582E00E9433030895109269
:1001D00061001092600089E0E2E6F0E0DF011D922C
:1001E0008A95E9F70895CF93DF9300D000D01F924E
:1001F000CDB7DEB782E08B8391E09C8389831A823E
:10020000CE0101960E942C01CE0101960E9431027E
:100210000F900F900F900F900F90DF91CF91089556
:10022000CF93DF9300D000D01F92CDB7DEB782E02E
:100230008B831C8289831A82CE0101960E942C0135
:10024000CE0101960E9431020F900F900F900F90F7
:100250000F90DF91CF910895FC018081843008F0E8
:10026000F5C09181983008F0F1C022812230E1F58B
:10027000813099F028F08230E9F0833041F108951F
:100280004AB321E030E0B90102C0660F771F9A95AA
:10029000E2F7CB01842B8ABB089547B321E030E01D
:1002A000B90102C0660F771F9A95E2F7CB01842B44
:1002B00087BB089544B321E030E0B90102C0660F66
:1002C000771F9A95E2F7CB01842B84BB089541B345
:1002D00021E030E0B90102C0660F771F9A95E2F77E
:1002E000CB01842B81BB0895211140C08130A1F046
:1002F00028F08230F9F0833059F108954AB321E0B3
:1003000030E0B90102C0660F771F9A95E2F7CB0182
:10031000809584238ABB089547B321E030E0B9017A
:1003200002C0660F771F9A95E2F7CB018095842370
:1003300087BB089544B321E030E0B90102C0660FE5
:10034000771F9A95E2F7CB018095842384BB0895AB
:1003500041B321E030E0B90102C0660F771F9A95E2
:10036000E2F7CB018095842381BB0895213009F009
:1003700077C080B78B7F80BF80818130F9F030F00B
:100380008230A1F1833009F449C008953AB381E085
:1003900090E0AC01018002C0440F551F0A94E2F7BF
:1003A000242F209523232ABB2BB3018002C0880F62
:1003B000991F0A94E2F7822B8BBB089537B381E033
:1003C00090E0AC01018002C0440F551F0A94E2F78F
:1003D000242F2095232327BB2BB3018002C0880F35
:1003E000991F0A94E2F7822B8BBB089534B381E006
:1003F00090E0AC01018002C0440F551F0A94E2F75F
:10040000242F2095232324BB2BB3018002C0880F07
:10041000991F0A94E2F7822B8BBB089531B381E0D8
:1004200090E0AC01018002C0440F551F0A94E2F72E
:10043000242F2095232321BB2BB3018002C0880FDA
:10044000991F0A94E2F7822B8BBB0895843018F031
:1004500081E0848308958181883010F082E0848374
:100460000895FC018081843008F085C09181983026
:1004700008F081C023812130E1F5813099F028F026
:100480008230E9F0833041F108954BB321E030E050
:10049000B90102C0660F771F9A95E2F7CB01842B52
:1004A0008BBB089548B321E030E0B90102C0660F6C
:1004B000771F9A95E2F7CB01842B88BB089545B34B
:1004C00021E030E0B90102C0660F771F9A95E2F78C
:1004D000CB01842B85BB089542B321E030E0B90104
:1004E00002C0660F771F9A95E2F7CB01842B82BB7F
:1004F000089521114AC08130A1F028F08230F9F02E
:10050000833059F108954BB321E030E0B90102C0C6
:10051000660F771F9A95E2F7CB01809584238BBBFA
:10052000089548B321E030E0B90102C0660F771F9B
:100530009A95E2F7CB018095842388BB089545B353
:1005400021E030E0B90102C0660F771F9A95E2F70B
:10055000CB018095842385BB089542B321E030E030
:10056000B90102C0660F771F9A95E2F7CB0180951B
:10057000842382BB0895843018F081E08483089539
:100580008181883010F082E084830895FC018081AD
:10059000843080F52181283068F51482813079F02B
:1005A00028F08230A9F08330E1F031C089B390E0C7
:1005B00002C0959587952A95E2F78170089586B3D4
:1005C00090E002C0959587952A95E2F7817008958D
:1005D00083B390E002C0959587952A95E2F78170E4
:1005E000089580B390E002C0959587952A95E2F72B
:1005F00081700895843020F081E084838FEF089526
:100600008181883030F082E084838FEF08958FEF0E
:1006100008958FEF0895CF93DF9300D000D01F92FD
:10062000CDB7DEB792E09B8391E09C83823029F4C2
:1006300083E0898384E08A8305C0813019F483E0F4
:1006400089838A83CE0101960E942C01CE010196F6
:100650000E94310280E00F900F900F900F900F904A
:10066000DF91CF910895CF93DF9300D000D01F92F8
:10067000CDB7DEB792E09B831C82823029F483E001
:10068000898384E08A8305C0813019F483E08983FB
:100690008A83CE0101960E942C01CE0101960E9410
:1006A000310280E00F900F900F900F900F90DF912C
:1006B000CF9108950E9449000E94E7000E947100B6
:1006C000FDCFCF93DF9300D000D01F92CDB7DEB720
:1006D0001B82813021F4898382E08A8306C08230C4
:1006E00021F481E0898383E08A83CE0101960E9410
:1006F0002C01CE0101960E94C602CE0101960E94F5
:10070000C6020F900F900F900F900F90DF91CF9136
:1007100008950E943D0408F481E008950E94A20318
:100720000C9478040E94710458F00E946A0440F00E
:1007300029F45F3F29F00C94610451110C94AC042E
:100740000C9467040E94890468F39923B1F355233C
:1007500091F3951B550BBB27AA27621773078407D4
:1007600038F09F5F5F4F220F331F441FAA1FA9F36A
:1007700035D00E2E3AF0E0E832D091505040E69558
:10078000001CCAF72BD0FE2F29D0660F771F881FB9
:10079000BB1F261737074807AB07B0E809F0BB0BAC
:1007A000802DBF01FF2793585F4F3AF09E3F5105C0
:1007B00078F00C9461040C94AC045F3FE4F3983E31
:1007C000D4F3869577956795B795F7959F5FC9F7A9
:1007D000880F911D9695879597F90895E1E0660F2A
:1007E000771F881FBB1F621773078407BA0720F0A3
:1007F000621B730B840BBA0BEE1F88F7E09508950C
:10080000E89409C097FB3EF49095809570956195AA
:100810007F4F8F4F9F4F9923A9F0F92F96E9BB2760
:100820009395F695879577956795B795F111F8CFDC
:10083000FAF4BB0F11F460FF1BC06F5F7F4F8F4F47
:100840009F4F16C0882311F096E911C0772321F03D
:100850009EE8872F762F05C0662371F096E8862FD5
:1008600070E060E02AF09A95660F771F881FDAF72C
:10087000880F9695879597F90895990F0008550F59
:10088000AA0BE0E8FEEF16161706E807F907C0F016
:1008900012161306E407F50798F0621B730B840B1E
:1008A000950B39F40A2661F0232B242B252B21F4F8
:1008B00008950A2609F4A140A6958FEF811D811D98
:1008C000089597F99F6780E870E060E008959FEFD2
:1008D00080EC089500240A941616170618060906D7
:1008E000089500240A9412161306140605060895A6
:1008F000092E0394000C11F4882352F0BB0F40F42E
:10090000BF2B11F460FF04C06F5F7F4F8F4F9F4F6D
:10091000089557FD9058440F551F59F05F3F71F0EF
:100920004795880F97FB991F61F09F3F79F0879556
:100930000895121613061406551FF2CF4695F1DFDF
:1009400008C0161617061806991FF1CF869571056F
:10095000610508940895E894BB2766277727CB01A3
:1009600097F908950E943D0408F48FEF08950E94BE
:10097000CA040C9478040E946A0438F00E9471043E
:1009800020F0952311F00C9461040C946704112459
:100990000C94AC040E94890470F3959FC1F3950FE9
:1009A00050E0551F629FF001729FBB27F00DB11DF3
:1009B000639FAA27F00DB11DAA1F649F6627B00D83
:1009C000A11D661F829F2227B00DA11D621F739F6C
:1009D000B00DA11D621F839FA00D611D221F749F7A
:1009E0003327A00D611D231F849F600D211D822FC1
:1009F000762F6A2F11249F5750409AF0F1F08823E8
:100A00004AF0EE0FFF1FBB1F661F771F881F915014
:100A10005040A9F79E3F510580F00C9461040C945E
:100A2000AC045F3FE4F3983ED4F3869577956795E1
:100A3000B795F795E7959F5FC1F7FE2B880F911D3E
:0C0A40009695879597F90895F894FFCFDC
:00000001FF
