S0190000547269676765725F45766572795F356D732E7372656359
S11300000C942A000C9447000C9447000C9447006D
S11300100C9447000C9447000C9447000C94470040
S11300200C9447000C9447000C9447000C94470030
S11300300C9447000C9447000C9447000C94470020
S11300400C9447000C9447000C9447000C94470010
S11300500C94470011241FBECFE5D8E0DEBFCDBF0E
S113006010E0A0E6B0E0EEE6F5E002C005900D92E7
S1130070A036B107D9F720E0A0E6B0E001C01D9298
S1130080A036B207E1F70E9477020C94B5020C94F3
S11300900000FC018081843008F0F5C09181983023
S11300A008F0F1C022812230E1F5813099F028F086
S11300B08230E9F0833041F108954AB321E030E021
S11300C0B90102C0660F771F9A95E2F7CB01842B22
S11300D08ABB089547B321E030E0B90102C0660F3E
S11300E0771F9A95E2F7CB01842B87BB089544B31D
S11300F021E030E0B90102C0660F771F9A95E2F75C
S1130100CB01842B84BB089541B321E030E0B901D5
S113011002C0660F771F9A95E2F7CB01842B81BB4F
S11301200895211140C08130A1F028F08230F9F007
S1130130833059F108954AB321E030E0B90102C097
S1130140660F771F9A95E2F7CB01809584238ABBCB
S1130150089547B321E030E0B90102C0660F771F6C
S11301609A95E2F7CB018095842387BB089544B325
S113017021E030E0B90102C0660F771F9A95E2F7DB
S1130180CB018095842384BB089541B321E030E002
S1130190B90102C0660F771F9A95E2F7CB018095EB
S11301A0842381BB0895213009F077C080B78B7F09
S11301B080BF80818130F9F030F08230A1F183304A
S11301C009F449C008953AB381E090E0AC0101809C
S11301D002C0440F551F0A94E2F7242F20952323CD
S11301E02ABB2BB3018002C0880F991F0A94E2F73F
S11301F0822B8BBB089537B381E090E0AC01018082
S113020002C0440F551F0A94E2F7242F209523239C
S113021027BB2BB3018002C0880F991F0A94E2F711
S1130220822B8BBB089534B381E090E0AC01018054
S113023002C0440F551F0A94E2F7242F209523236C
S113024024BB2BB3018002C0880F991F0A94E2F7E4
S1130250822B8BBB089531B381E090E0AC01018027
S113026002C0440F551F0A94E2F7242F209523233C
S113027021BB2BB3018002C0880F991F0A94E2F7B7
S1130280822B8BBB0895843018F081E08483089519
S11302908181883010F082E084830895FC0180819C
S11302A0843008F085C09181983008F081C02381A2
S11302B02130E1F5813099F028F08230E9F0833083
S11302C041F108954BB321E030E0B90102C0660F5B
S11302D0771F9A95E2F7CB01842B8BBB089548B323
S11302E021E030E0B90102C0660F771F9A95E2F76A
S11302F0CB01842B88BB089545B321E030E0B901DC
S113030002C0660F771F9A95E2F7CB01842B85BB59
S1130310089542B321E030E0B90102C0660F771FAF
S11303209A95E2F7CB01842B82BB089521114AC030
S11303308130A1F028F08230F9F0833059F108952A
S11303404BB321E030E0B90102C0660F771F9A95E4
S1130350E2F7CB01809584238BBB089548B321E059
S113036030E0B90102C0660F771F9A95E2F7CB011E
S11303708095842388BB089545B321E030E0B9011A
S113038002C0660F771F9A95E2F7CB01809584230C
S113039085BB089542B321E030E0B90102C0660F85
S11303A0771F9A95E2F7CB018095842382BB089549
S11303B0843018F081E0848308958181883010F0BE
S11303C082E084830895FC018081843080F521815A
S11303D0283068F51482813079F028F08230A9F051
S11303E08330E1F031C089B390E002C095958795E0
S11303F02A95E2F78170089586B390E002C095953E
S113040087952A95E2F78170089583B390E002C03E
S1130410959587952A95E2F78170089580B390E0C9
S113042002C0959587952A95E2F7817008958430E6
S113043020F081E084838FEF08958181883030F04B
S113044082E084838FEF08958FEF08958FEF0895EE
S1130450CF93DF9300D000D01F92CDB7DEB792E0E8
S11304609B8391E09C83813021F483E089838A8398
S113047006C0823021F483E0898384E08A83CE013C
S113048001960E944900CE0101960E944E0180E02F
S11304900F900F900F900F900F90DF91CF910895D0
S11304A0CF93DF9300D000D01F92CDB7DEB792E098
S11304B09B831C82813021F483E089838A8306C074
S11304C0823021F483E0898384E08A83CE0101961B
S11304D00E944900CE0101960E944E0180E00F90D7
S11304E00F900F900F900F90DF91CF9108958FE1AF
S11304F09EE40197F1F700C000000E94B202F7CF1A
S1130500CF93DF9300D000D01F92CDB7DEB71B820C
S1130510811103C019821A8204C0813011F4198236
S11305208A83CE0101960E944900CE0101960E9461
S1130530E301CE0101960E94E3010F900F900F900A
S11305400F900F90DF91CF91089580E00E94800278
S1130550882321F081E00E942802089581E00E940E
S1110560500208950E94A5020895F894FFCF5A
S9030000FC
